:020000040800F2
:10000000C0060020CD010008210D0008E905000808
:100010001D0D00087D020008D31900080000000033
:10002000000000000000000000000000D7100008E1
:100030008102000800000000630E0008D9120008C9
:10004000E7010008E7010008E7010008E7010008F0
:10005000E7010008E7010008E7010008E7010008E0
:10006000E7010008E7010008E7010008E7010008D0
:10007000E7010008E7010008E7010008E7010008C0
:10008000E7010008E7010008E7010008E7010008B0
:10009000E7010008E7010008E70100088502000801
:1000A000E7010008E7010008E7010008E701000890
:1000B000F114000865150008E7010008E7010008D1
:1000C000E7010008E7010008E7010008E701000870
:1000D000E7010008ED160008E7010008E701000845
:1000E000E7010008E7010008E7010008E701000850
:1000F000E7010008E7010008E7010008E701000840
:10010000E7010008E7010008E7010008E70100082F
:10011000E7010008E7010008E7010008E70100081F
:10012000E7010008E7010008E7010008E70100080F
:1001300000F002F800F03AF80AA090E8000C8244BF
:100140008344AAF10107DA4501D100F02FF8AFF29C
:10015000090EBAE80F0013F0010F18BFFB1A43F0A5
:10016000010318473864000058640000103A24BFA7
:1001700078C878C1FAD8520724BF30C830C144BF0C
:1001800004680C607047000000230024002500264E
:10019000103A28BF78C1FBD8520728BF30C148BFEA
:1001A0000B6070471FB51FBD10B510BD00F033F8D0
:1001B0001146FFF7F7FF01F07FFC00F051F803B4A0
:1001C000FFF7F2FF03BC01F006FC0000094880477E
:1001D00009480047FEE7FEE7FEE7FEE7FEE7FEE729
:1001E000FEE7FEE7FEE7FEE704480549054A064B41
:1001F00070470000DD12000831010008C000002037
:10020000C0060020C0020020C002002070477047D6
:10021000704770477047754600F02CF8AE460500F1
:100220006946534620F00700854618B020B5FFF711
:10023000DBFFBDE820404FF000064FF000074FF015
:1002400000084FF0000B21F00701AC46ACE8C009F4
:10025000ACE8C009ACE8C009ACE8C0098D467047FD
:1002600010B50446AFF300802046BDE81040FFF70C
:10027000A6BF0000004870476000002000BFFEE7F6
:10028000704700002DE9F0410A2001F0EFFB40200B
:1002900000F03CF860B300214FF0804001F0D2F94B
:1002A0000121880701F0A5F900BF4021114800F0A5
:1002B00036F90028F9D100214FF0804001F099F97A
:1002C0004FF0804001F0A1F94FF4AC7100FB01F454
:1002D000204602F060F905460022074B01F0D6FFE8
:1002E000074601F0EDFE05490860402000F008F8DF
:1002F000BDE8F081000C01400000694018000020BA
:1003000001490860704700001404014001460020C4
:100310000022074B1B6803EA0102054B14331B68DC
:100320000B4013B10AB1012000E00020704700002B
:1003300000040140002123498279002A3AD00A466C
:10034000126803689A430B461A600A1D1268036814
:100350009A430B1D1A60027911440A6803681A4314
:100360000A60184A0832126803689A43154B08332A
:100370001A601A1D126803689A43124B0C331A60F4
:100380004279102A0ED11A1F126803681A430D4BC6
:1003900008331A601A1D126803681A43094B0C339C
:1003A0001A600DE00749427911440A6803681A434C
:1003B0000A6005E0027911440A6803689A430A60FA
:1003C000704700000004014030B500228B071C0F6D
:1003D0000F2303FA04F20B4B8C1053F82430934391
:1003E000084C8D1044F8253023468C1053F82430E7
:1003F0008C07240F00FA04F42343024C8D1044F8B8
:10040000253030BD080001402DE9F04102460025AD
:100410000026002000230024002791F803C00CF0E0
:100420000F0591F803C00CF0100CBCF1000F03D0C5
:1004300091F802C04CEA050591F800C0BCF1000F2C
:1004400031D0146800202BE04FF0010C0CFA00F3BF
:10045000B1F800C00CEA03069E4220D183004FF0A1
:100460000F0C0CFA03F7BC4305FA03FC4CEA040436
:1004700091F803C0BCF1280F06D14FF0010C0CFA23
:1004800000FCC2F814C00AE091F803C0BCF1480FA8
:1004900005D14FF0010C0CFA00FCC2F810C0401C52
:1004A0000828D1D31460B1F800C0BCF1FF0F34DDCF
:1004B000546800202EE000F1080C4FF0010808FA03
:1004C0000CF3B1F800C00CEA03069E4221D1830070
:1004D0004FF00F0C0CFA03F7BC4305FA03FC4CEA8F
:1004E000040491F803C0BCF1280F05D100F1080CF9
:1004F00008FA0CF8C2F8148091F803C0BCF1480F58
:1005000007D100F1080C4FF0010808FA0CF8C2F806
:100510001080401C0828CED35460BDE8F08102460C
:10052000002093680B400BB1012000E000207047D1
:1005300041617047016170471FB50121082000F03B
:10054000A1FC0121084600F09DFC8020ADF80C00C4
:1005500010208DF80F0003208DF80E0003A9184815
:10056000FFF752FF4020ADF80C0028208DF80F0057
:1005700003208DF80E0003A91148FFF745FF06215F
:100580000120FFF721FF4020019000208DF8080096
:1005900008208DF8090001208DF80A0001A8FFF756
:1005A000C9FE17208DF8000002208DF801000120FF
:1005B0008DF802008DF80300684600F0B3FB1FBD04
:1005C000000C014010B580210648FFF7B3FF14204E
:1005D00001F04CFA80210348FFF7AAFF0A2001F03E
:1005E0001FFA10BD000C014000BFFEE72DE9F041ED
:1005F00007460C4615461E462A2000F00BFB3846DF
:1006000000F0F9FA284600F0F6FA2B2000F002FB81
:10061000204600F0F0FA304600F0EDFA2C2000F011
:10062000F9FABDE8F0812DE9FF4F85B081468A4691
:100630000020039083460798A0EB09050898A0EBDB
:100640000A06CDF80890CDF804A0002D01DD0127A1
:1006500005E00DB9002702E04FF0FF376D42002E94
:1006600002DD4FF0010806E016B94FF0000802E085
:100670004FF0FF387642B54201DD2C4600E03446AB
:10068000002004901EE0019A91B2029A90B2129A50
:1006900000F01FF8039828440390B3440398A04245
:1006A00005DD0398001B0390029838440290A3458F
:1006B00004DDABEB040B0198404401900498401C0E
:1006C00080B20490611C04988842DCDB09B0BDE86C
:1006D000F08F70B504460D4616462B462246294635
:1006E0002046FFF783FF304600F085FA70BD2DE904
:1006F000F84305460E4617469846089C33463A4648
:10070000314628460094FFF78EFF43462A4631467D
:1007100028460094FFF787FF43463A46414628465D
:100720000094FFF780FF43463A463146384600942E
:10073000FFF779FFBDE8F8832DE9F04706460F463D
:1007400014461D46DDF820A0681E83B2601E82B2EA
:1007500039463046FFF74AFFB8460EE0B14606E09C
:10076000504600F048FA09F101001FFA80F9A1454E
:10077000F6DB08F101001FFA80F8A845EEDBBDE8C2
:10078000F087000008B50121042000F07BFB3F202A
:10079000ADF8000010208DF8030003208DF8020052
:1007A00069460448FFF730FE3F210248FFF7C2FECA
:1007B00008BD00000008014010B5FFF7E3FF082165
:1007C0007A48FFF7B5FE642001F02AF9082177483E
:1007D000FFF7B0FE642001F023F901217348FFF711
:1007E000A9FE642001F01CF9112000F013FA782012
:1007F00001F016F9B12000F00DFA052000F004FA1E
:100800003C2000F001FA3C2000F0FEF9B22000F09C
:1008100001FA052000F0F8F93C2000F0F5F93C2041
:1008200000F0F2F9B32000F0F5F9052000F0ECF942
:100830003C2000F0E9F93C2000F0E6F9052000F04A
:10084000E3F93C2000F0E0F93C2000F0DDF9B420B1
:1008500000F0E0F9032000F0D7F9C02000F0DAF949
:10086000282000F0D1F9082000F0CEF9042000F093
:10087000CBF9C12000F0CEF9C02000F0C5F9C220AC
:1008800000F0C8F90D2000F0BFF9002000F0BCF91D
:10089000C32000F0BFF98D2000F0B6F92A2000F047
:1008A000B3F9C42000F0B6F98D2000F0ADF9EE20C8
:1008B00000F0AAF9C52000F0ADF91A2000F0A4F963
:1008C000362000F0A7F9C02000F09EF9E02000F0EB
:1008D000A1F9042000F098F9222000F095F90720F2
:1008E00000F092F90A2000F08FF92E2000F08CF928
:1008F000302000F089F9252000F086F92A2000F048
:1009000083F9282000F080F9262000F07DF92E20C0
:1009100000F07AF93A2000F077F9002000F074F93D
:10092000012000F071F9032000F06EF9132000F0AF
:100930006BF9E12000F06EF9042000F065F9162053
:1009400000F062F9062000F05FF90D2000F05CF97C
:100950002D2000F059F9262000F056F9232000F050
:1009600053F9272000F050F9272000F04DF92520F9
:1009700000F04AF92D2000F047F93B2000F044F93F
:10098000002000F041F9012000F03EF9042000F0C1
:100990003BF9132000F038F93A2000F03BF905202C
:1009A00000F032F9292000F035F910BD00080140AF
:1009B0002DE9FF5F80468A4617469B460F9D002023
:1009C0000290CDF80080284605EBD071C1F34704B2
:1009D0002046E21704EB5272D2102146E31704EBD3
:1009E0005373DB10A4EBC3030BB1012300E000231E
:1009F0001A446A4392B20192A7F12000C7B20AEBEF
:100A00000500401E83B208EB0400401E82B251462E
:100A10004046FFF7EBFD002669E00C2D07D107EB00
:100A20004700354901EB8000805D03901BE0102DED
:100A300005D1324800EB0710805D039013E0182DBC
:100A400007D107EB47002E4901EB0010805D0390B2
:100A500009E0202D05D12B4800EB8710805D039025
:100A600001E0BDE8FF9F4FF000093AE01098C8B9D7
:100A7000012000FA09F00399084018B1584600F027
:100A8000BAF802E00E9800F0B6F80298401CC0B226
:100A90000290029890FBF4F104FB1100E8B90020E9
:100AA000029021E0012000FA09F00399084020B1EA
:100AB0005A4651464046FFF70CFE08F101001FFA66
:100AC00080F80098A8EB0000A04206D1DDF8008075
:100AD0000AF101001FFA80FA06E009F1010000F0B6
:100AE000FF09B9F1080FC1DB00BF701C86B2019885
:100AF000864292DB00BFB4E79A2E00080E3300084E
:100B0000FE380008CE4A00082DE9F84F074688460F
:100B10001646994617200090002443E0307804EBF5
:100B20000411234A12F81110884239D1707804EB6D
:100B3000041102EB41014978884231D108F10F00DC
:100B400083B207F10F0082B241463846FFF74EFDEF
:100B5000002522E004EB0410154901EB4000801C45
:100B600010F805B04FF0000A12E00BF0800080286A
:100B700003D1484600F03FF802E00A9800F03BF845
:100B80004FEA4B604FEA106B0AF1010000F0FF0AD8
:100B9000BAF1080FE9DB681CC5B2202DDADB04E0EE
:100BA000601CC4B200988442B8DB00BFBDE8F88F77
:100BB0008E6200082DE9FE4F06460F461446984601
:100BC000DDE90D5ADDF8309010E0CDE9015ACDF89D
:100BD00000902278434639463046FFF7E9FE284622
:100BE00005EBD07106EB61018EB2641C2078002801
:100BF000EBD1BDE8FE8F10B50446201200F01AF8C4
:100C0000E0B200F017F810BD10B50446204600F021
:100C100011F810BD10B5044604210548FFF788FC03
:100C2000204600F007F804210148FFF783FC10BDBF
:100C30000008014070B5044602211248FFF778FC15
:100C4000002517E020210F48FFF772FC04F0800018
:100C500020B110210B48FFF76DFC03E0102109487B
:100C6000FFF766FC20210748FFF764FC6006040ECE
:100C7000681CC5B2082DE5DB02210248FFF75AFCCB
:100C800070BD00000008014008B50121482000F0B7
:100C9000F9F82020ADF8000010208DF803000320A3
:100CA0008DF8020069460948FFF7AEFB202107488E
:100CB000FFF740FC2020ADF8000069460448FFF72C
:100CC000A3FB20210248FFF735FC08BD000C0140C2
:100CD0000018014008B50121042000F0D3F840209D
:100CE000ADF8000014208DF8030003208DF80200F9
:100CF00069460948FFF788FB40210748FFF71AFCBF
:100D00008020ADF8000069460348FFF77DFB802195
:100D10000148FFF70FFC08BD0008014000BFFEE7D7
:100D20007047000070B5002100230F22C47804B37F
:100D3000154C246804F4E064C4F5E064210AC1F1B0
:100D40000403CA40447804FA03F184781440214330
:100D500009010E4C0678A155047804F01F05012402
:100D6000AC4005786D11AD0005F1E025C5F80041F6
:100D700009E0047804F01F050124AC40044D067816
:100D8000761145F8264070BD0CED00E000E400E06F
:100D900080E100E002490143024A1160704700000F
:100DA0000000FA050CED00E0FCB502462F2300BF61
:100DB00000208DF805008DF804008DF803008DF8F3
:100DC000020001208DF8010007208DF800002F237C
:100DD00000250521002409E0581EC3B2072C02DAC1
:100DE000601CC4B202E00024481EC1B2505C8027DF
:100DF0002741384008B90029EEDCA3F10800C5B24C
:100E00001EE0052118E0481E1DF8000000F08000DB
:100E100018B1002901DD012600E000261DF80100BF
:100E20004006000E0DF801001DF801003044C0B26C
:100E30000DF80100481EC1B2FF29E4DB681EC5B2EF
:100E4000002DDED1002106E0505C1DF801707840D5
:100E50005054481CC1B20529F6DD082BA8DC1078D7
:100E6000FCBD704729B1064AD2690243044BDA61DE
:100E700004E0034AD2698243014BDA617047000003
:100E80000010024029B1064A92690243044B9A615C
:100E900004E0034A92698243014B9A617047000063
:100EA0000010024030B500210022002400232D4D07
:100EB0006D6805F00C0121B1042905D0082923D162
:100EC00005E0294D056022E0274D05601FE0254D16
:100ED0006D6805F47012234D6D6805F480340225A9
:100EE00005EB92421CB9214D554305600BE01D4DA9
:100EF0006D6805F400351DB11C4D5543056002E0D9
:100F0000194D5543056002E0174D056000BF00BF55
:100F1000144D6D6805F0F0010909154D6B5C05680D
:100F2000DD4045600F4D6D6805F4E061090A104D24
:100F30006B5C4568DD4085600A4D6D6805F4605165
:100F4000C90A0B4D6B5C4568DD40C560054D6D6899
:100F500005F44041890B074D6B5CC568B5FBF3F5A3
:100F6000056130BD0010024000127A0000093D000A
:100F700049000020590000202DE9FC5F04460D4681
:100F80004FF0000BD846C146C2466006040E00BFB3
:100F900000BF00F06FF9AAF1010000F0FF0ABAF1FA
:100FA000000F00D135E000F045F9204600F0B4F81C
:100FB00000B1EEE7284600F0AFF800B1E9E700F035
:100FC00039F9012000F0A8F800B1E2E7002000F0B4
:100FD00069F88046002000F065F88146012000F0A5
:100FE00061F8074600F046F98DF805408DF8045089
:100FF000601CC0B28DF803008DF802808DF801905E
:1010000000208DF800006846FFF7CEFE0646BE427F
:10101000BED100BF48EA092B5846BDE8FC9F00003E
:101020002DE9F04707210020FFF7A6FF824601F0D7
:10103000C9FA0646074A084B01F014FB04464FF074
:101040006632064B01F042FC804601F039F8BDE8FB
:10105000F08700007B14AE47E17A943F661271403E
:1010600010B540210E48FFF765FA022000F0FEFCA3
:1010700080210B48FFF75EFA052000F0F7FC4021C5
:101080000748FFF74CFA08B1012400E00024802152
:101090000348FFF74DFA052000F0E8FC204610BD9C
:1010A0000008014070B5064608250DE0FFF7D8FF9F
:1010B00020B16006040E44F0010403E06006040E53
:1010C00004F0FE04681EC5B2002DEFD1304600F0DA
:1010D00003F8204670BD704710B5044624B940217E
:1010E0000C48FFF725FA03E040210A48FFF722FAEF
:1010F000052000F0BBFC80210648FFF71BFA0A2000
:1011000000F0B4FC80210348FFF712FA0A2000F037
:10111000ADFC10BD000801402DE9F0410446082552
:101120000CE004F0800008B1012600E00026304603
:10113000FFF7D2FF6006040E681EC5B2002DF0D185
:10114000FFF78EFF07463846BDE8F08110B500F086
:1011500001F810BD0CB500200190009033480068E4
:1011600040F480303149086000BF3048006800F426
:10117000003000900198401C0190009818B9019827
:10118000B0F5A06FF1D12948006800F4003010B12B
:101190000120009001E0002000900098012843D138
:1011A0002348006840F010002149086008460068A4
:1011B00020F0030008600846006840F00200086064
:1011C0001A4840681949486008464068486008461F
:1011D000406840F4806048600846406820F47C1015
:1011E00048600846406840F4E810486008460068D7
:1011F00040F08070086000BF0C48006800F000708C
:101200000028F9D00948406820F0030007494860E9
:101210000846406840F00200486000BF034840684C
:1012200000F00C000828F9D10CBD000000100240AD
:101230000020024010B540210D48FFF77BF9052042
:1012400000F014FC80210A48FFF774F9052000F033
:101250000DFC40210648FFF76BF90A2000F006FC60
:1012600080210348FFF764F9052000F0FFFB10BD63
:101270000008014010B580210C48FFF759F90520FE
:1012800000F0F4FB40210948FFF752F9052000F077
:10129000EDFB80210548FFF74DF90A2000F0E6FB41
:1012A00040210248FFF746F910BD00000008014048
:1012B000042808D14FF0E021096941F004014FF002
:1012C000E022116107E04FF0E021096921F00401FB
:1012D0004FF0E022116170477047000010B51348CD
:1012E000006840F001001149086008464068104954
:1012F00008400E494860084600680E4908400B49FE
:1013000008600846006820F48020086008464068AD
:1013100020F4FE0048604FF41F008860FFF716FFBE
:101320004FF000600449086010BD0000001002404A
:101330000000FFF8FFFFF6FE08ED00E02DE9FF4F8B
:101340008DB0074690461C46DDE91CABDDF8689081
:101350000025002609E0052C03DD14B1601EC4B28F
:1013600003E0A9F1010000F0FF0904EB09000728E0
:10137000F1DC404601F02EFC0546284601F04AFC0F
:101380004146009001F00AFD019001F089FB554AA9
:10139000554BCDE9020100F0C5FE0022534BCDE9CB
:1013A000040101F05FF9CDE9060101F0C7F8064636
:1013B00042F21070B5FBF0F00A21B0FBF1F201FB34
:1013C000120030308DF828004FF47A70B5FBF0F041
:1013D000B0FBF1F201FB120030308DF829006420DF
:1013E000B5FBF0F0B0FBF1F201FB120030308DF8EC
:1013F0002A000A20B5FBF0F0B0FBF1F201FB12006D
:1014000030308DF82B000A20B5FBF0F100FB1150B5
:1014100030308DF82C0000208DF82D0042F2107035
:10142000B6FBF0F00A21B0FBF1F201FB1200303004
:101430008DF820004FF47A70B6FBF0F0B0FBF1F2BB
:1014400001FB120030308DF821006420B6FBF0F073
:10145000B0FBF1F201FB120030308DF822000A20BF
:10146000B6FBF0F0B0FBF1F201FB120030308DF86A
:1014700023000A20B6FBF0F100FB116030308DF83C
:101480002400002008A901F809001E98C4F10501F4
:101490000AABCA1807F10801CDE900AB029088B287
:1014A0001B9B0E99FFF786FB1E98611C07EBC10181
:1014B000CDE900AB029088B22E221B9B0E99FFF75C
:1014C00077FA1E98A11C07EBC101CDE900AB029091
:1014D00088B208AA1B9B0E99FFF76CFB11B0BDE800
:1014E000F08F0000F168E388B5F8D43E006AF84058
:1014F00010B50121880700F08BF818B10121880789
:1015000000F074F810BD7FB505460C460121084671
:10151000FFF7A8FCADF80850ADF804400020ADF886
:101520000A00ADF8060001A94FF0804000F08CF8E9
:1015300001221146900700F07CF81C208DF8000075
:1015400000208DF8010003208DF8020001208DF8A5
:1015500003006846FFF7E6FB0121880700F049F821
:101560007FBD000010B50121064800F051F840B1E0
:101570000121044800F03AF803480088401C024961
:10158000088010BD00040040200000207FB5054603
:101590000C4601210220FFF765FCADF80850ADF8BC
:1015A00004400020ADF80A00ADF8060001A90E487D
:1015B00000F04AF8012211460B4800F03AF81D20CD
:1015C0008DF8000000208DF8010003208DF8020046
:1015D00001208DF803006846FFF7A4FB01210248B3
:1015E00000F007F87FBD000000040040CA430282FB
:1015F000704721B1028842F00102028004E00288B3
:101600004FF6FE731A40028070470146888C70477F
:1016100030B50246002000230024158A05EA0103A4
:10162000958905EA010413B10CB1012000E0002006
:1016300030BD1AB183890B43838102E083898B43D8
:101640008381704781847047002202881D4B984235
:101650000ED01D4B98420BD0B0F1804F08D01B4BE1
:10166000984205D01A4B984202D01A4B984204D1A6
:101670004FF68F731A404B881A43174B984207D086
:10168000164B984204D04FF6FF431A40CB881A43BA
:1016900002808B8883850B8803850A4B98420BD088
:1016A000094B984208D00E4B984205D00D4B9842FA
:1016B00002D00D4B984201D10B7A0386012383821D
:1016C00070470000002C014000340140000400403D
:1016D00000080040000C00400010004000140040D2
:1016E00000400140004401400048014010B540F274
:1016F00025511E4800F0ABF8002836D01B4800F0FA
:1017000061F91B49087008460078612803D101205F
:101710001849086025E016480078622806D1154867
:101720000068012802D1144908601AE010480078C6
:1017300074280BD11148006840B900200D49086099
:101740000D49086001200D4908600AE0084800784A
:10175000662806D109480068012802D100200749FF
:1017600008604021014800F05DF810BD00380140DC
:10177000480000202C0000203400002044000020FD
:1017800010B586B00446012144F20400FFF77AFB4D
:101790004FF40070ADF8140003208DF816001820E7
:1017A0008DF8170005A91D48FEF72EFE4FF4806046
:1017B000ADF8140004208DF8170005A91748FEF7AE
:1017C00023FE01940020ADF80800ADF80A00ADF842
:1017D0000C00ADF810000C20ADF80E0001A9104867
:1017E00000F084F8012240F225510D4800F059F82C
:1017F00001210B4800F01FF825208DF80000022081
:101800008DF8010003208DF8020001208DF80300FF
:101810006846FFF787FA06B010BD000000080140D7
:101820000038014001F40072B2F5007F00D100BF22
:10183000CA430280704721B1828942F400528281FA
:1018400004E082894DF6FF731A408281704770B5BB
:101850000246002400230025002040F66A16B1420B
:1018600000D100BFC1F3421501F01F03012606FAA3
:1018700003F3012D02D19689334006E0022D02D1F7
:10188000168A334001E0968A33400C12012606FA8C
:1018900004F41688344013B10CB1012000E000209C
:1018A00070BDF0B50346002400260025002040F658
:1018B0006A17B94200D100BF1846C1F3421401F0C3
:1018C0001F06012707FA06F5012C01D10C3004E0B0
:1018D000022C01D1103000E014301AB107682F43F8
:1018E000076002E00768AF430760F0BD2DE9F047ED
:1018F00086B005460E460024A24600BFA14600273A
:10190000B08900B100BF2F462C8A4CF6FF7004400E
:10191000F08804432C82AC894EF6F3100440B08862
:1019200031890843718908430443AC81AC8A4FF67E
:10193000FF400440B0890443AC8201A8FFF7B2FA2B
:101940001F48874202D1DDF810A001E0DDF80CA0AD
:10195000A88900F4004040B10AEBCA0000EB0A106D
:1019600031684900B0FBF1F807E00AEBCA0000EB70
:101970000A1031688900B0FBF1F86420B8FBF0F080
:1019800004012009642101FB1089A88900F40040AA
:1019900040B1322000EBC900B0FBF1F000F00700CD
:1019A000044308E0322000EB09106421B0FBF1F0A1
:1019B00000F00F0004432C8106B0BDE8F087000062
:1019C0000038014001468888C0F3080070478180D4
:1019D000704700BFFEE700BF7047000010B56FF012
:1019E0000400FFF765FC0A4800680A49B0FBF1F003
:1019F000094908700846007800EB4001C1EBC010AF
:101A00004FF6FF7101EAC0000449088010BD0000D4
:101A10000400002000127A001C0000201E0000209C
:101A20000146114A12884A434FF0E0235A610022CE
:101A30009A611A46126942F001021A6100BF4FF022
:101A4000E022106900F001021AB100F48032002A8D
:101A5000F5D04FF0E022126922F001024FF0E023AE
:101A60001A6100229A6170471E0000200146114A47
:101A700012784A434FF0E0235A6100229A611A46D5
:101A8000126942F001021A6100BF4FF0E0221069B2
:101A900000F001021AB100F48032002AF5D04FF0B4
:101AA000E022126922F001024FF0E0231A610022C5
:101AB0009A6170471C00002086B0FFF78FFFFFF788
:101AC000E3F84FF4A060FFF765F941F61F4141F2DA
:101AD0008730FFF718FD41F61F4141F28730FFF7CD
:101AE00055FD4FF41650FFF74BFEFFF7F3F8FEF7E6
:101AF00063FE4FF6FF70A02380220021009008466D
:101B0000FEF71AFEFEF718FDFE4C00BF4121FE480D
:101B1000FFF75DFFC7E24FF6FF700023FBA2022133
:101B200000900520FEF7F0FF4FF6FF700023F8A2AB
:101B3000022100901420FEF7E7FFF649F6480068FE
:101B400001F0FBF801D2FEF73DFDF448006800F01B
:101B5000A7FF0546F24AF34B00F048FD05D3F249D2
:101B6000EE48006801F0E9F809D2FFF759FA054696
:101B70004FF0804100F0C0FFE749086055E0E748BA
:101B8000006800F08DFF0546E54AE84B00F02EFDA9
:101B90000FD8FFF745FA814600F082FF0746002282
:101BA000E34B00F0BFFA054600F08AFADA49086014
:101BB0003BE0DA48006800F073FF0546DD4ADE4B83
:101BC00000F014FD10D8FFF72BFA814600F068FFF3
:101BD00007464FF03332D94B00F0A4FA054600F027
:101BE0006FFACD49086020E0CC48006800F058FF4B
:101BF0000546CB4AD24B00F0F9FC08D8FFF710FAA3
:101C00000546D04900F078FFC34908600DE0C3489D
:101C1000006800F045FF0546C14AC94B00F020FEB0
:101C200003D2FFF7FDF9BC4908602146BA480068B5
:101C300001F083F813D2002010214FF6FF724FF409
:101C40007843CDE90132CDE9031001200223009051
:101C5000B148194602684620FFF770FB12E00020E9
:101C600010214FF6FF724FF4FC63CDE90132CDE94C
:101C70000310012002230090A7481946026846205D
:101C8000FFF75CFB4FF6FF700023AFA2022100902C
:101C90006E20FEF739FF1F2014237E2200210090C2
:101CA0000220FEF724FD4FF6FF700023A7A2282193
:101CB00000900520FEF728FF4FF6FF700023A4A236
:101CC000282100901420FEF71FFF4FF6FF7000231D
:101CD000A0A2282100902320FEF716FF4FF6FF70E8
:101CE00000239DA2282100903220FEF70DFF1F2027
:101CF0003C237E22232100900220FEF7F8FC974827
:101D0000006801281FD10C214FF6FF724FF4784371
:101D1000CDE90021029092A216216420FEF74AFF2D
:101D200001200C214FF6FF721346CDE900210290ED
:101D30008DA216210020FEF73DFF00208C4908608F
:101D40008C4908601AE001200C214FF6FF721346FF
:101D5000CDE90021029082A216216420FEF72AFF1D
:101D600001200C214FF6FF724FF4FC63CDE90021F6
:101D700002907DA216210020FEF71CFF7C4800681F
:101D8000012825D14FF6FF704FF4FC637AA2282179
:101D900000905020FEF7B8FE4FF6FF704FF4FC6342
:101DA00076A2282100905F20FEF7AEFE4FF6FF706E
:101DB0004FF4FC6372A2282100906E20FEF7A4FE6F
:101DC00001206B49086042214F48FFF700FE1DE0EB
:101DD0004FF6FF704FF478436AA2282100905020FC
:101DE000FEF792FE4FF6FF704FF4784363A228216E
:101DF00000905F20FEF788FE4FF6FF704FF47843A7
:101E00005FA2282100906E20FEF77EFE4FF6FF7045
:101E100000235DA2462100900520FEF775FE4FF6D7
:101E2000FF70002359A2462100901420FEF76CFE9B
:101E30004FF6FF70002347A2462100902320FEF7B3
:101E400063FE4FF6FF70002343A24621009032202C
:101E5000FEF75AFE1F205A237E22232100900220E3
:101E6000FEF745FC43480068012825D14FF6FF7076
:101E70004FF4FC6340A2462100905020FEF744FE40
:101E80004FF6FF704FF4FC633CA2462100905F20A8
:101E9000FEF73AFE4FF6FF704FF4FC6338A246217E
:101EA00000906E20FEF730FE01203249086041218B
:101EB0001548FFF78CFD1DE04FF6FF704FF4784397
:101EC00030A2462100905020FEF71EFE4FF6FF7014
:101ED0004FF4784329A2462100905F20FEF714FEBC
:101EE0004FF6FF704FF4784325A2462100906E20F4
:101EF000FEF70AFE4FF6FF70002316A26421009041
:101F0000052045E00000164200380140CCE5000005
:101F1000CEC200000000C8410000002018000020D0
:101F200085EB51B81E85FB3F0000C8421E850B4063
:101F300000000440A4703D0AD7A3144033330B4083
:101F40001E851B400000A040A1E60000C8CB000099
:101F5000C1B30000CAB60000B1F000004400002088
:101F60005445535400000000464F524D414C000070
:101F70002C00002034000020D2D10000CDA80000A9
:101F8000B9FD0000CEB40000BFDA0000D5D60000D5
:101F9000FEF7BAFD4FF6FF700023AFF24402642152
:101FA00000901420FEF7B0FD4FF6FF7000233EA214
:101FB000642100902320FEF7A7FD4FF6FF70002359
:101FC0003AA2642100903220FEF79EFD1F20782364
:101FD0007E22232100900220FEF789FB344800680E
:101FE00001283FD13348006801283BD121463248BF
:101FF000006800F023FE35D24FF6FF704FF4FC630B
:10200000AFF28C02642100905020FEF77DFD4FF668
:10201000FF704FF4FC63AFF29C02642100905F20DC
:10202000FEF772FD4FF6FF704FF4FC63AFF2B002A3
:10203000642100906E20FEF767FD41211F48FFF7E5
:10204000C6FC00201A4908601A490860C820FFF73A
:10205000E7FC4FF4FA60FFF7E3FC41211748FFF774
:10206000B6FC20E04FF6FF704FF47843AFF2EC027D
:10207000642100905020FEF747FD4FF6FF704FF4AB
:102080007843AFF20812642100905F20FEF73CFD18
:102090004FF6FF704FF47843AFF21C1264210090AA
:1020A0006E20FEF731FD36E5BDE10000B9FB000012
:1020B0002C000020340000200000002000380140E7
:1020C00021F00042A2F16052B2F5801F01F00043FE
:1020D00028BFD2F17F6C0BD95FEA001C43EAC20231
:1020E00042EB507018BF704728BF20F001007047C6
:1020F000B2F5801FBCBF184670474FEA410C1CF573
:10210000001F02D2084600F013BE70B500F054FB69
:1021100000000089FFF7F6BF4FF00040A0F58000F7
:102120007047000010B591EA030F48BF83F00043E9
:1021300000F1D483841A71EB030C05D2121943EB1E
:102140000C03001B61EB0C01DFF824E14FEA115492
:10215000A4EB135C1EEA430F18BF9EEA445F73D0E2
:1021600023EA0E03DCF1200E21EA045143F480132C
:1021700032D322FA0CFE10EB0E0023FA0CFE41EBD8
:102180000E01CCF1200E03FA0EFE10EB0E0051F101
:102190000001B1F5801FCCF1200E32D201EB0451C9
:1021A00012FA0EF2BDE8104058BF7047401C38BF0D
:1021B0005FEA420218BF7047002814BF20F00100F8
:1021C00041F100014FEA410313F5001F38BF70478A
:1021D000A1F1C04100F03EBB012A43EB0302ACF188
:1021E000200CDCF11F0E32BF4FF0000E23FA0CF36F
:1021F00010EB030041EB0451B4EB115FD0D0A1EB25
:10220000045101F5801149085FEA300001EB0451E7
:102210000ED350F1000038BF12FA0EFE08D1BDE80F
:102220001040C9E7401C38BF5FEA4202CAD1C3E789
:10223000BDE810404FEA410313F5001F38BF704757
:10224000A1F1C04100F006BB9EEA445F08D011EA4C
:102250005E0FBDE8104004BF01F000410020704750
:10226000BDE8104070B500F0A7FA00BF64FBBE3EA9
:102270000000E0FF491058BFC1F140415B1058BF5A
:10228000C3F140438B42EFF3008070472DE9C0411A
:1022900030B4DFF8A0C23CEA111418BF3CEA1314B2
:1022A00000F0EC8081EA03051CEA111444EAD574BD
:1022B00018BF1CEA131500F0C780A4EB05044FF00B
:1022C000004545EAC12145EAC32341EA505143EAAA
:1022D000525304F17F74994204F500344FEAC02050
:1022E0004FEAC22208BF904200F09C804FEA13657B
:1022F0000FF24016765D4FEA134506FB05F7C7F16E
:10230000807706FB07F74FEAD737A7FB03687642CB
:10231000C8F58038A7FB06CE38BFA8F1010807FB37
:1023200008E64FF0000EA6FB028CE6FB03CEDCF1C4
:10233000000CCEF1004E38BFAEF1010EA6FB0C58DA
:102340004FF000074FF00005E6FB0E87A1FB08C623
:10235000A0FB07CE16EB0E0645F10005E1FB076575
:1023600015F1E04E7EBFA4F580345FEA46066D416C
:1023700016F1800745F100054FEA17274FEA066678
:1023800047EA0567A6F1DE46B6F1805F4FEA1525FC
:102390001FD9384624F0010C05EBC471BCF1FE6F67
:1023A00001EB0C1102D8F0BCBDE8008124425CBFF7
:1023B00001F5801E9EEAC47F02D4F0BCBDE8008116
:1023C000244238D4F0BCA1F1C041BDE8004100F086
:1023D00041BA4FEAD22242EA43524FEAD323A7FB43
:1023E00002864FEAD02040EA415007FB03661EEA0E
:1023F0000E0F4FEAD12105FB026658BFA6EB00562F
:10240000B6EB00564FEA520E4EEAC37E18EB0E0EA4
:1024100056EB530EBDD518EB02085E417F1C55F1FB
:102420000005B6E74FF480154FF000074FF00006A7
:102430004FF00008ADE7F0BC4FF0000001F1C041E3
:1024400001F00041BDE8008111EA0C1F0CEA1315F0
:1024500000D00CE013EA0C1F00F025804FF00000C4
:10246000F0BC81EA030101F00041BDE80081F0BC4D
:10247000BDE8004181EA030100F0ECB9F0BCBDE821
:10248000004170B500F098F9097EFC3E00F007B8F5
:1024900081EA03014FF0000001F00041704781EA3A
:1024A000030100F0D7B9F0BCBDE800414FF00000D7
:1024B00021497047FFFDFBF9F7F5F4F2F0EEEDEB83
:1024C000E9E8E6E4E3E1E0DEDDDBDAD8D7D5D4D332
:1024D000D1D0CFCDCCCBCAC8C7C6C5C4C2C1C0BF7E
:1024E000BEBDBCBBBAB9B8B7B6B5B4B3B2B1B0AF84
:1024F000AEADACABAAA9A8A8A7A6A5A4A3A3A2A168
:10250000A09F9F9E9D9C9C9B9A9999989797969522
:1025100095949393929191908F8F8E8E8D8C8C8BBE
:102520008B8A898988888787868585848483838246
:10253000828181800000FF070000F87F4FEA11537D
:10254000A3F58063D3F11E03A8BFD3F1200C08DBF1
:102550004FF0004242EAC12252EA505232FA03F0EE
:10256000704709420BD4102BC4BF0020704703F5FD
:10257000787CBCF1FF3F05D04FF0FF3070474FF043
:102580000000704770B500F017F900BF4992248031
:1025900000207047F0E710F0004248BF4042B0FA18
:1025A00080F310FA03F10AD0C3F11D0303F5806331
:1025B0004FEA415002EB035202EBD12170474FF03A
:1025C00000007047B0FA80F310FA03F10AD0C3F1AB
:1025D0001D0303F580634FEA41504FEA035202EBBB
:1025E000D12170474FF000007047000051EA030C02
:1025F00017D41CF5801F58BFBCF5801F00F1068062
:10260000994218BF704708BF9042704707D711F52D
:10261000801F58BF13F5801F19D499427047894213
:1026200070471CF5801F08D5BCF5801FF7D58B427D
:1026300018BF704708BF824270474FF4001C1CEB64
:10264000410F38BF1CEB430F01D28B42704770B56E
:1026500000F0B2F8922449004FF000514FF080533F
:10266000FFF708BEDFF848C170B51CEA111E1EBF97
:102670001CEA13159EEA0C0F95EA0C0F00F06F8010
:1026800081EA030423EA4C134EEAD47E21EA4C117A
:1026900041F4801143F48013AE44A1FB024CA0FB33
:1026A0000365AEF17F7E361955EB0C05A1FB034C9B
:1026B0004CF10003A0FB021C16EB0C06654153F124
:1026C0000003094218BF46F0010613F4007F0BD146
:1026D0004FEA03314FEA0530340341EA155140EA2D
:1026E00016506FF003020AE04FEAC3214FEAC520FB
:1026F000F40241EA555140EA56506FF0020202EBF3
:102700002E4201EB025585EACE710AD05FEA440CF5
:1027100018BF24F0004450F1000041F1000120EA0C
:10272000D47040F2FE7C624500D270BDA84214BF56
:102730004FF080444FF04044002E08BF0024BEF10B
:10274000806FA8BFA1F1C041BDE8704080F28280D7
:102750004FF0000001F1C04101F0004170479EEAD6
:102760000C0F0CEA131518BF95EA0C0F06D04FF0AA
:10277000000081EA030E0EF0004170BD00F01CF86D
:102780008900013E00F007B800F009B84FEA430C99
:102790005FEA5C5C08D081EA030100F05BB84FEAB5
:1027A000410C5FEA5C5CF6D14FF0000001497047D4
:1027B0000000FF070000F87F0EF1020E2EF0030E5E
:1027C0005EF8046B364205D4012A43EB030515F588
:1027D000001F12D8012841EB010C1CF5001F0CD87A
:1027E0000ED14FEAD17C15F5001F0CEB4C0C0CF10F
:1027F000020C08BF4CEBD37C04E04FF0080C01E066
:102800004FEAD37C0CEB4C0526FA05F606F00706DA
:10281000B6F1040C06D20EEB860CBDE870404CF00D
:10282000010C6047DFE80CF0090B02024FF0004199
:102830004FF00000A1F5002170BD19461046012897
:1028400051EB010418BFD4F5001484BF002001F03F
:10285000004170BD0808A0F500114FEA3101704732
:1028600053EA010C17D41CF5801F58BFBCF5801F1C
:1028700000F106808B4218BF704708BF8242704744
:1028800007D713F5801F58BF11F5801F19D48B424D
:1028900070479B4270471CF5801F08D5BCF5801F10
:1028A000F7D5994218BF704708BF904270474FF460
:1028B000001C1CEB430F38BF1CEB410F01D29942A7
:1028C00070470FB40CBC03BCFFF7C1BE10B591EA52
:1028D000030F48BF83F000433FF52CAC841A71EB23
:1028E000030C07D212198CF0004C43EB0C03001BB5
:1028F00061EB0C01DFF8A4E14FEA1154A4EB135C87
:102900001EEA430F18BF9EEA445F00F0B08023EA3E
:102910006E03524221EA0451C3EB6E0338BF5B1EC3
:10292000DCF1200E25D322FA0CFE10EB0E0043FA48
:102930000CFE41EB0E01CCF1200E03FA0EFE10EB63
:102940000E0051F10001CCF1200E29D412FA0EF242
:1029500001EB0451BDE8104058BF7047401C1CBF3C
:10296000B2F1004F704700280CBF491C20F0010055
:10297000704712EB020E43EB030218BF4FF0010E3B
:102980004EEA4202ACF1200CDCF11E0E54D943FA9F
:102990000CFE10EB0E0051F1FF31CCF11E0ED5D51F
:1029A0000EF1010E12FA0EFE404141EB010101EB66
:1029B000445C5FEA5C5C10D910EBDE7001EB045103
:1029C00038BFBEF1004FBDE8104018BF7047002867
:1029D0000CBF491C20F00100704730D24FEAD42CC4
:1029E00011F5001124F400641BD0B1FA81F20B3A06
:1029F000A41AA41ED2F12003914030FA03F3194324
:102A0000904001EBCC71002C01EB0451BDE810406B
:102A1000A8BF704701F1C0414FF0000001F0004134
:102A20007047B0FA80F310FA03F100D110BDE41A38
:102A3000173C4805C90AE4E701EB045110BD4910F1
:102A400001EB0451BDE810404FEA300002E04FF0C6
:102A5000000170474A0008BF0042F8D0B2F5001FDD
:102A600028BF704701F000414FF0000070479EEA18
:102A7000445F07D011EA5E0FBDE8104004BF00219B
:102A800000207047BDE8104070B5FFF795FE00BF0D
:102A900040DFF63E83F00041104670470000E0FF43
:102AA00043004FEAD30C4FEA3C0C43401FBF4007A2
:102AB0000CF1605113F0FE4F70471CF0006F03D112
:102AC00000200CF0004170470CF0004343EA5070C6
:102AD00010B540EACC0000F0E5F800BF000000921D
:102AE0004FEA0001FFF7B6BE4FF000414FF0000083
:102AF000A1F500217047000090EA010F48BF81F066
:102B0000004100F15C81421A3CBF801A89184FEAEB
:102B1000D0524FF07F4C1CEA410FA2EBD15318BFAB
:102B20009CEA026F00F03B804FF0004C4CEA002022
:102B30004CEA012121FA03FC10EB0C0C1ED202F12D
:102B4000FF325FEA1C2040EBC25038BF70471CF0D8
:102B50007F0F4FEA400C18BFBCF17F4F38BF704762
:102B6000C3F12003994008BF20F00100BCF17F4F62
:102B700038BF7047A0F1C04000F0DAB84FEA3C001F
:102B8000000A40EBC25028BF1CF0FF0F4FEA400C78
:102B9000E6D018BFBCF17F4F38BF7047EAE79CEA28
:102BA000026F05D010EA5C0F08BF00F000407047CC
:102BB00010B500F077F800BF64FBBE3E401058BF70
:102BC000C0F14040491058BFC1F140418142EFF38C
:102BD00000807047C10DD1F19E0206DB4FEA002351
:102BE00043F0004323FA02F07047004207D54FEA52
:102BF0004001B1F1FE4F02D24FF00000704710B516
:102C000000F050F849922480002070476FEA2000BD
:102C100070470000B0FA80F310FA03F2C3F19D038D
:102C20000AD0D90501EB1220530638BF704700F1D6
:102C3000010008BF20F001007047000050EA010CBD
:102C400000F113801CF5000F58BFBCF5000F01D434
:102C50008842704707D710F5000F58BF11F5000FD5
:102C600015D488427047894270471CF5000F04D57F
:102C7000BCF5000FF7D5814270474FF0807C1CEB0C
:102C8000400F38BF1CEB410F01D28142704710B595
:102C900000F008F8922449004FF000504FF08051A6
:102CA000FFF78CBF0EF1020E2EF0030E5EF8044B00
:102CB000244204D44FEA4102B2F17F4F11D84FEAC7
:102CC0004003B3F17F4F0CD80ED14FEAD07CB2F164
:102CD0007F4F0CEB4C0C0CF1020C08BF4CEBD17C81
:102CE00004E04FF0080C01E04FEAD17C0CEB4C0300
:102CF00024FA03F404F00704B4F1040C06D20EEB3A
:102D0000840CBDE810404CF0010C6047DFE80CF08B
:102D1000070802024FF00040A0F5800010BD0846F1
:102D2000420018BFD2F1807288BF00F0004010BD91
:102D3000FF2141EAD050C005704751EA000C00F174
:102D400013801CF5000F58BFBCF5000F01D4814261
:102D5000704707D711F5000F58BF10F5000F15D4B5
:102D600081427047894270471CF5000F04D5BCF5BD
:102D7000000FF7D5884270474FF0807C1CEB410F65
:102D800038BF1CEB400F01D28842704780EA010037
:102D900081EA000180EA0100FFF779BF80F000407E
:102DA00090EA010F7FF5AFAE81F0004100F007B867
:102DB00090EA010F48BF81F000413FF5A4AE421AEE
:102DC00004D882F00042A0EB020011444FEAD05236
:102DD0004FF07F4C1CEA410FA2EBD15318BF9CEA85
:102DE000026F4AD04FF0004C4CEA00204CEA01211F
:102DF00021FA03FCB0EB0C0C0FD412F0FE0F36D00E
:102E00005FEA4C001DD5001240EBC25038BF70473E
:102E10001CF03F0F18BF70470BE0A2F101025FEA00
:102E20001C2040EBC25038BF70471CF07F0F18BF0A
:102E30007047C3F12003994014BF401E20F00100E9
:102E4000704780084FEA122308BF7047B0FA80FC31
:102E5000A2EB0C02CCF1280C60FA0CF093EA122FD2
:102E600004BF00EBC25070474FEAC3707047130AAB
:102E70005FEADC1008BF7047F6E79CEA026F04D0F7
:102E800010EA5C0F08BF0020704710B5FFF70AFF7B
:102E900040DFF63E81F00040704700000000000077
:102EA000000000000000000004040404040000040A
:102EB000000014140A0000000000000000000000E0
:102EC0000A0A1F0A0A1F0A0A000000040E15050656
:102ED0000C14150E0400000012150D152E2C2A12CC
:102EE00000000000040A0A36151529160000020227
:102EF00001000000000000000000100808040404A5
:102F0000040408081000020404080808080804045F
:102F1000020000000004150E0E1504000000000061
:102F20000008083E08080000000000000000000043
:102F300000000202010000000000003F000000004D
:102F4000000000000000000000000002000000205F
:102F50001010080804040202010000000E111111F3
:102F60001111110E00000000040604040404040EF4
:102F7000000000000E1111080402011F00000000F3
:102F80000E11100C1010110E00000000080C0C0A9D
:102F9000091F081C000000001F01010F1110110E75
:102FA000000000000C12010D1311110E00000000B2
:102FB0001E10080804040404000000000E11110E85
:102FC0001111110E000000000E1111191610090642
:102FD00000000000000004000000000400000000E9
:102FE00000000004000000040400000010080402B7
:102FF000020408100000000000003F003F00000035
:103000000000000002040810100804020000000084
:103010000E11110804040004000000001C22292DD8
:103020002D1D221C0000000004040C0A0A1E12338D
:10303000000000000F12120E1212120F000000000A
:103040001E1101010101110E000000000F121212E9
:103050001212120F000000001F120A0E0A02121FA5
:10306000000000001F120A0E0A0202070000000002
:103070001C1201013911120C000000003312121E43
:1030800012121233000000001F0404040404041F81
:10309000000000003E0808080808080809070000AA
:1030A00037120A060A121237000000000702020255
:1030B0000202223F000000003B1B1B1B15151535AB
:1030C000000000003B1216161A1A1217000000002A
:1030D0000E1111111111110E000000000F12120E2D
:1030E00002020207000000000E1111111117190E43
:1030F000180000000F12120E0A1212370000000012
:103100001E1101060810110F000000001F15040415
:103110000404040E00000000331212121212120CEA
:10312000000000003312120A0A0C04040000000020
:10313000151515150E0A0A0A000000001B0A0A04DC
:10314000040A0A1B000000001B0A0A0A0404040EF9
:10315000000000001F0908040402121F00001C04E4
:1031600004040404040404041C0000020204040413
:103170000808081010000E080808080808080808C1
:103180000E00040A00000000000000000000000023
:103190000000000000000000003F020400000000EA
:1031A00000000000000000000000000C121C123C97
:1031B000000000030202020E1212120E00000000B4
:1031C0000000001C1202120C000000181010101C4D
:1031D0001212123C000000000000000C121E021C23
:1031E000000000182404041E0404041E0000000053
:1031F0000000003C120C021C221C00030202020E02
:103200001212123700000004040000060404040E29
:10321000000000080800000C080808080807000360
:103220000202021A0A060A1300000007040404043A
:103230000404041F000000000000000F1515151500
:10324000000000000000000F121212370000000002
:103250000000000C1212120C000000000000000F11
:103260001212120E020700000000001C1212121CA3
:10327000103800000000001B0602020700000000DA
:103280000000001E020C101E000000000004041EBE
:103290000404041C000000000000001B1212123C79
:1032A000000000000000001B0A0A040400000000E7
:1032B00000000015150E0A0A000000000000001BA7
:1032C0000A040A1B000000000000003312120C0860
:1032D000040300000000001E0804041E000018087B
:1032E0000808080C08080808180008080808080852
:1032F0000808080808080604040404080404040470
:103300000600160900000000000000000000000098
:1033100000000000000000000000000000000000AD
:1033200000080808080808080000181800000048ED
:103330006C241200000000000000000000000000EB
:10334000002424247F1212127F12121200000000A7
:10335000081C2A2A0A0C1828282A2A1C08080000F7
:103360000022251515152A58545454220000000037
:10337000000C1212120A76252911916E0000000627
:1033800006040300000000000000000000000040F0
:10339000201010080808080808101020400000023B
:1033A0000408081010101010100808040200000093
:1033B000000008086B1C1C6B0808000000000000DF
:1033C0000000080808087F0808080800000000003E
:1033D00000000000000000000000060604030000DA
:1033E000000000000000FE000000000000000000DF
:1033F00000000000000000000000060600000000C1
:103400008040402020101008080404020200000040
:103410000018244242424242424224180000000066
:1034200000080E08080808080808083E0000000008
:10343000003C4242422020100804427E000000006E
:10344000003C4242201820404042221C0000000064
:1034500000203028242422227E2020780000000032
:10346000007E0202021A26404042221C0000000098
:1034700000382402021A26424242241800000000AA
:10348000007E22221010080808080808000000002A
:10349000003C4242422418244242423C00000000C8
:1034A00000182442424264584040241C000000009E
:1034B00000000000181800000000181800000000AC
:1034C00000000000000800000000000808040000E0
:1034D00000402010080402040810204000000000F2
:1034E000000000007F0000007F00000000000000DE
:1034F0000002040810204020100804020000000010
:10350000003C424246402010100018180000000005
:10351000001C225A555555552D42221C0000000012
:10352000000808181414243C224242E7000000005E
:10353000001F2222221E22424242221F00000000BF
:10354000007C4242010101010142221C00000000F6
:10355000001F2242424242424242221F000000001B
:10356000003F4212121E12120242423F00000000AF
:10357000003F4212121E1212020202070000000057
:10358000003C2222010101712122221C00000000C6
:1035900000E7424242427E42424242E700000000CF
:1035A000003E0808080808080808083E0000000057
:1035B000007C10101010101010101010110F0000CF
:1035C000007722120A0E0A1212222277000000004F
:1035D00000070202020202020202427F0000000013
:1035E0000077363636362A2A2A2A2A6B000000004F
:1035F00000E346464A4A52525262624700000000C7
:10360000001C2241414141414141221C0000000077
:10361000003F424242423E02020202070000000016
:10362000001C2241414141414D53321C60000000C9
:10363000003F4242423E1212222242C700000000D6
:10364000007C4242020418204042423E000000003A
:10365000007F4908080808080808081C0000000046
:1036600000E74242424242424242423C00000000E5
:1036700000E7424222242414141808080000000025
:10368000006B494949495555362222220000000065
:1036900000E7422424181818242442E70000000000
:1036A00000772222141408080808081C00000000F3
:1036B000007E2120101008040442423F00000078E0
:1036C0000808080808080808080808087800000022
:1036D0000202040408080810102020204040001EA8
:1036E0001010101010101010101010101E000038C4
:1036F0004400000000000000000000000000000086
:1037000000000000000000000000000000FF0006B4
:1037100008000000000000000000000000000000A1
:1037200000000000003C4278444242FC00000000DF
:1037300000030202021A26424242261A000000003A
:10374000000000000038440202024438000000007B
:103750000060404040784442424264D8000000008B
:1037600000000000003C427E0202423C00000000DB
:1037700000F08808087E08080808083E00000000DD
:1037800000000000007C22221C023C42423C00005F
:1037900000030202023A4642424242E700000000B1
:1037A000000C0C00000E08080808083E000000008D
:1037B000003030000038202020202020221E000071
:1037C000000302020272120A1612227700000000A1
:1037D000000E0808080808080808083E0000000055
:1037E00000000000007F9292929292B700000000C9
:1037F00000000000003B4642424242E70000000059
:1038000000000000003C42424242423C00000000F6
:1038100000000000001B26424242221E0207000058
:1038200000000000007844424242447840E000003A
:103830000000000000774C040404041F0000000096
:1038400000000000007C42023C40423E00000000BC
:1038500000000008083E08080808083000000000C2
:103860000000000000634242424262DC00000000AF
:103870000000000000E742242414080800000000B3
:103880000000000000EB49495555222200000000CD
:1038900000000000007624181818246E00000000B4
:1038A0000000000000E74224241418080807000064
:1038B00000000000007E22100808447E000000C0C6
:1038C000202020202010202020202020C0001010A8
:1038D0001010101010101010101010101010000602
:1038E00008080808081008080808080806000C322C
:1038F000C200000000000000000000000000000006
:1039000000000000000000000000000000000000B7
:1039100000000000000000000000000000000000A7
:103920000000000000000000000000000000000097
:1039300000000000000060006000600060006000A7
:103940006000600040002000200020000000000017
:103950000000600060006000000000000000000047
:1039600000006006600630039801880044000000F3
:103970000000000000000000000000000000000047
:103980000000000000000000000000000000000037
:103990000000000000001002100210021002FE07DA
:1039A000FE0708020801080108010801FE07FE07DA
:1039B00004010401040104010000000000000000F3
:1039C0000000000040004000F00158034C03CC030D
:1039D0004C0058007000E000C001C00140034C03DF
:1039E0005C034C034801F000400040000000000070
:1039F0000000000000000E010A01910091009100FA
:103A0000510051003A00AE03A00250045004480493
:103A10004804480484028403000000000000000001
:103A200000000000000038006C006C006C006C00AE
:103A30006C002C0098071C011A013301330163014B
:103A4000E300C308C6093C070000000000000000B6
:103A500000000C001C001000100008000400000012
:103A60000000000000000000000000000000000056
:103A70000000000000000000000000000000000046
:103A800000000004000200018000800040004000AF
:103A90002000200020002000200020002000400006
:103AA00040008000800000010002000400000000CF
:103AB0000000020004000800100010002000200098
:103AC0004000400040004000400040004000200016
:103AD0002000100010000800040002000000000098
:103AE000000000000000000000004000C000400096
:103AF000460C4E0FD001F0015E0F460C4000400016
:103B00004000000000000000000000000000000075
:103B10000000000000000000000000004000400025
:103B2000400040004000FE0F4000400040004000C8
:103B30004000000000000000000000000000000045
:103B40000000000000000000000000000000000075
:103B50000000000000000000000000000000000065
:103B600000000C001C001000100008000400000001
:103B70000000000000000000000000000000000045
:103B8000000000000000FE07000000000000000030
:103B90000000000000000000000000000000000025
:103BA0000000000000000000000000000000000015
:103BB0000000000000000000000000000000000005
:103BC00000001C001C001C000000000000000000A1
:103BD0000000000400060002000300010001800054
:103BE0008000400040006000200020001000100015
:103BF000080008000C00040006000200000000009D
:103C00000000000000000000F00098010C030C030D
:103C10000606060606060606060606060606060644
:103C20000C030C039801F0000000000000000000ED
:103C3000000000000000000040007C006000600008
:103C40006000600060006000600060006000600074
:103C5000600060006000FC03000000000000000045
:103C60000000000000000000F800840102030603C9
:103C70000603000300018001C00060002000100066
:103C8000080204020602FE0300000000000000001B
:103C900000000000000000007800C60086018601D8
:103CA00080018001C000700080010001000300035A
:103CB000060306038601F800000000000000000073
:103CC000000000000000000080018001C001A00190
:103CD000A00190018801880184018201FE0F80010A
:103CE000800180018001E00700000000000000006A
:103CF0000000000000000000FC03040004000400B9
:103D000004000400F4008C01040300030003060314
:103D1000060382018401F80000000000000000009A
:103D20000000000000000000E00118030C030C007C
:103D300004000600E60116030E0606060606060641
:103D400004060C021803F000000000000000000050
:103D50000000000000000000F8070C060402040147
:103D60000001000180008000400040004000600031
:103D700060006000600060000000000000000000C3
:103D80000000000000000000F8010C030606060613
:103D900006060C021C03F000C8010C03060606060A
:103DA000060606060C03F0010000000000000000FB
:103DB0000000000000000000F0000C010C030602EF
:103DC00006060606060606078C06780600060003A9
:103DD00000030C018C0178000000000000000000CE
:103DE00000000000000000000000000000000000D3
:103DF0000000E000E000E000000000000000000023
:103E00000000E000E000E000000000000000000012
:103E100000000000000000000000000000000000A2
:103E200000006000600000000000000000000000D2
:103E30000000000060006000400020002000000042
:103E400000000000000000040002000180004000AB
:103E500020001000080004000800100020004000AE
:103E600080000001000200040000000000000000CB
:103E70000000000000000000000000000000000042
:103E80000000FE07000000000000FE070000000028
:103E90000000000000000000000000000000000022
:103EA0000000000000000400080010002000400096
:103EB00080000001000200040002000180004000B8
:103EC00020001000080004000000000000000000B6
:103ED0000000000000000000E0031806040C040CC1
:103EE0000C0C0C0C0007800140004000400000005A
:103EF0000000E000E000E000000000000000000022
:103F0000000000000000E00018030C02CC0564056E
:103F10006605A605B604B604B604B604B602E40106
:103F20000C040C021803F000000000000000000068
:103F30000000000000000000600060005000D000A1
:103F400090009000880088010801F8010403040330
:103F50000402020202060F0F000000000000000031
:103F60000000000000000000FE008C030C030C03A6
:103F70000C030C038C01FC000C030C020C060C0659
:103F80000C060C060C03FE010000000000000000FF
:103F90000000000000000000E00318030C060C0401
:103FA00004040600060006000600060006000604DB
:103FB0000C040C021803F0000000000000000000D8
:103FC00000000000000000007F008C010C030C03C7
:103FD0000C060C060C060C060C060C060C060C0651
:103FE0000C030C038C017F000000000000000000A7
:103FF0000000000000000000FF03060306040604A2
:10400000060086008600FE00860086008600060008
:10401000060406040602FF03000000000000000082
:104020000000000000000000FF0306030604060471
:10403000060086008600FE008600860086000600D8
:104040000600060006001F0000000000000000003F
:104050000000000000000000F00018010C020C023B
:1040600004020600060006000600C60F060306034B
:104070000C030C031803F000000000000000000017
:1040800000000000000000000F0F060606060606EE
:10409000060606060606FE070606060606060606C7
:1040A0000606060606060F0F0000000000000000CE
:1040B0000000000000000000FC03600060006000E1
:1040C00060006000600060006000600060006000F0
:1040D000600060006000FC030000000000000000C1
:1040E0000000000000000000F807C000C000C00091
:1040F000C000C000C000C000C000C000C000C000C0
:10410000C000C000C000C000C60066003C00000047
:104110000000000000000000CF038601C60046003A
:104120002600160036002E006E004600C6008600EF
:104130008601060106038F07000000000000000052
:1041400000000000000000001F000600060006003E
:10415000060006000600060006000600060006002F
:10416000060406040602FF03000000000000000031
:1041700000000000000000000707860386038E038E
:104180008E034E034E034A035A035A033A03320383
:104190003203320312038707000000000000000012
:1041A00000000000000000008E0F0C021C021C0228
:1041B00034023402640264024402C40284028403AE
:1041C0008403040304031F02000000000000000039
:1041D0000000000000000000F00098010C030C0239
:1041E000060606060606060606060606060606066F
:1041F0000C020C039801F000000000000000000019
:104200000000000000000000FF000603060606068E
:104210000606060606068603FE00060006000600E1
:104220000600060006001F0000000000000000005D
:104230000000000000000000F00098010C030C02D8
:10424000060606060606060606060606060676069E
:104250004C02CC039801F00080070003000000002E
:104260000000000000000000FF010603060606062D
:10427000060606060603FE004600C6008600860106
:104280000603060306060F0E0000000000000000F3
:104290000000000000000000F8020C030602060205
:1042A00006000E003C00F800E00380030007020651
:1042B000020606060C03F0010000000000000000EA
:1042C0000000000000000000FE07620461086108B1
:1042D00060006000600060006000600060006000DE
:1042E000600060006000F8010000000000000000B5
:1042F00000000000000000001E070C020C020C026F
:104300000C020C020C020C020C020C020C020C023D
:104310000C020C021801F000000000000000000078
:1043200000000000000000000F0706020401040165
:104330000C010C0188008800980098005000500083
:10434000700030002000200000000000000000008D
:104350000000000000000000F70E62044204460462
:10436000460464026402E402E4029C029C01980197
:10437000980188018800880000000000000000000B
:1043800000000000000000009E070C010801180159
:104390009000B0006000200060006000D00090003D
:1043A0008801080104038E070000000000000000DF
:1043B00000000000000000000F0F060404020C02C1
:1043C00008011801B800B0007000600060006000D3
:1043D000600060006000F8010000000000000000C4
:1043E0000000000000000000FC070C0206030201B0
:1043F00080018000400040002000200010001800D4
:1044000008040C040402FE03000000000000000089
:104410000000E003200020002000200020002000F9
:10442000200020002000200020002000200020008C
:1044300020002000200020002000E00300000000F9
:104440000000000000000400040008000800100044
:10445000100010002000200040004000C00080003C
:1044600080000001000100020002000200040000C0
:1044700000007C0040004000400040004000400040
:10448000400040004000400040004000400040002C
:10449000400040004000400040007C000000000060
:1044A0006000900008010000000000000000000013
:1044B00000000000000000000000000000000000FC
:1044C00000000000000000000000000000000000EC
:1044D00000000000000000000000000000000000DC
:1044E00000000000000000000000000000000000CC
:1044F000000000000000000000000000FF0F0000AE
:104500000000180060000000000000000000000033
:10451000000000000000000000000000000000009B
:10452000000000000000000000000000000000008B
:10453000000000000000000000000000000000007B
:104540000000F0010C030C030003E0031C030E0346
:10455000060306038E0B7C0E000000000000000026
:1045600000000000000008000E000C000C000C0011
:104570000C00CC013C031C060C060C060C060C06B9
:104580000C060C021C03E401000000000000000007
:10459000000000000000000000000000000000001B
:1045A0000000F0008C018C01860106000600060068
:1045B00006020C020C01F0000000000000000000E8
:1045C0000000000000000002C0030003000300031D
:1045D000000378038C030C0306030603060306039B
:1045E000060304038C0778010000000000000000AF
:1045F00000000000000000000000000000000000BB
:104600000000E001180308020C060C06FC070C0071
:104610000C0018041802E001000000000000000077
:104620000000000000000000C003600630063000FB
:104630003000FE013000300030003000300030002B
:10464000300030003000FC010000000000000000DD
:10465000000000000000000000000000000000005A
:104660000000F007D8068C018C018C019801F8003D
:104670000C00FC00CC03060306038E03F8000000C8
:1046800000000000000008000E000C000C000C00F0
:104690000C00EC011C030C030C030C030C030C03B7
:1046A0000C030C030C039E07000000000000000038
:1046B000000000000000000060006000000000003A
:1046C00040007C00600060006000600060006000EE
:1046D000600060006000FC030000000000000000BB
:1046E0000000000000000000C001C0010000000048
:1046F0000001F001800180018001800180018001C2
:1047000080018001800180018001CC007C000000DC
:1047100000000000000008000E000C000C000C005F
:104720000C008C038C008C004C006C005C008C0036
:104730008C010C010C039E0700000000000000002B
:1047400000000000000040007C006000600060008D
:104750006000600060006000600060006000600059
:10476000600060006000FC0300000000000000002A
:104770000000000000000000000000000000000039
:1047800000003707EE0666066606660666066606DB
:10479000660666066606FF0F0000000000000000C7
:1047A0000000000000000000000000000000000009
:1047B0000000EE011C030C030C030C030C030C03A0
:1047C0000C030C030C039E07000000000000000017
:1047D00000000000000000000000000000000000D9
:1047E0000000F00098010C03060606060606060601
:1047F00006060C030C03F00000000000000000009F
:1048000000000000000000000000000000000000A8
:104810000000EE011C030C060C060C060C060C0630
:104820000C060C031C03EC010C000C003E00000005
:104830000000000000000000000000000000000078
:10484000000078028C030C0306030603060306032C
:10485000060304038C03780300030003C007000071
:104860000000000000000000000000000000000048
:1048700000009F035806380618001800180018009A
:10488000180018001800FF000000000000000000E1
:104890000000000000000000000000000000000018
:1048A0000000F0031C030C020C023800F000C003EF
:1048B000040304038C03FC0100000000000000005E
:1048C0000000000000000000000020002000300078
:1048D0003000FE0130003000300030003000300089
:1048E000300030023002E001000000000000000053
:1048F00000000000000000000000000000000000B8
:1049000008028E030C030C030C030C030C030C03B2
:104910000C030C039C07780100000000000000005D
:104920000000000000000000000000000000000087
:1049300000001E070C020801080118019000B000D9
:10494000B0006000600020000000000000000000D7
:104950000000000000000000000000000000000057
:104960000000F70E6204460464026402EC029C013B
:104970009801980198010800000000000000000064
:104980000000000000000000000000000000000027
:104990000000BC0718011001B00060006000E000DA
:1049A0009000080108039E070000000000000000BE
:1049B00000000000000000000000000000000000F7
:1049C00000009E0708010801080190009000B00057
:1049D0006000600060002000200024001C00000037
:1049E00000000000000000000000000000000000C7
:1049F0000000FC018401C40044006000200030007D
:104A0000180208020C03FC01000000000000000076
:104A10000000000380008000800080008000800093
:104A20008000800040002000400080008000800066
:104A300080008000800080008000000300004000B3
:104A40004000400040004000400040004000400066
:104A50004000400040004000400040004000400056
:104A60004000400040004000400040004000000086
:104A700000000C00100010001000100010001000CA
:104A80001000100020004000200010001000100056
:104A9000100010001000100010000C0000000000BA
:104AA0001C002204C204800300000000000000007B
:104AB00000000000000000000000000000000000F6
:104AC00000000000000000000000000000000000E6
:104AD00000000000000000000000000000000000D6
:104AE00000000000000000000000000000000000C6
:104AF00000000000000000000000000000000000B6
:104B000000000000000000000000000000000000A5
:104B10000000000000000000C001C001C001C00191
:104B2000C001C001C00180008000800080008000C2
:104B30008000800000000000000000008001C00331
:104B4000C003800100000000000000000000000021
:104B500000000000E01CE01CF01E700E3807180377
:104B600008018400000000000000000000000000B8
:104B70000000000000000000000000000000000035
:104B80000000000000000000000000000000000025
:104B90000000000000000000000020102010201085
:104BA00020102010FE7FFE7F10081008100810084B
:104BB000100810081008FE7FFE7F0804080408048F
:104BC00008040804000000000000000000000000CD
:104BD00000000000000000010001C0076019103152
:104BE00018311839183938017001E001C003800705
:104BF000000F001D003900311C311C310C310C112B
:104C0000180DE00700010001000100000000000095
:104C1000000000000000000000001C1036186308AF
:104C2000630C63046304630263026301361D9C37F3
:104C300080228063406340632063206330631022DE
:104C40001836081C000000000000000000000000F2
:104C500000000000000000000000F00098018C013E
:104C60008C018C018C018C00CC007800183E1C0853
:104C70003608320863046304C304C3038343064352
:104C80008E26781C000000000000000000000000DC
:104C9000000000001C003C003C0030003000100010
:104CA0000C000600000000000000000000000000F2
:104CB00000000000000000000000000000000000F4
:104CC00000000000000000000000000000000000E4
:104CD000000000000040002000100008000C00044C
:104CE00000060003000300038001800180018001B1
:104CF00080018001800180010003000300030006A1
:104D00000006000C00080010002000400000000019
:104D10000000000002000400080010003000200025
:104D20006000C000C000C0008001800180018001DF
:104D30008001800180018001C000C000C0006000CF
:104D400060003000100008000400020000000000B5
:104D50000000000000000000000000000000000152
:104D60008003800300011C713C79783DC00700017D
:104D7000C007783D3C791C710001800380038001ED
:104D80000000000000000000000000000000000023
:104D90000000000000000000000000000000000013
:104DA0000001000100010001000100010001FC7F81
:104DB00000010001000100010001000100010000EC
:104DC00000000000000000000000000000000000E3
:104DD00000000000000000000000000000000000D3
:104DE00000000000000000000000000000000000C3
:104DF00000000000000000000000000000001C0097
:104E00003C003C003000300010000C0006000000A8
:104E10000000000000000000000000000000000092
:104E20000000000000000000000000000000FE7F05
:104E30000000000000000000000000000000000072
:104E40000000000000000000000000000000000062
:104E50000000000000000000000000000000000052
:104E60000000000000000000000000000000000042
:104E700000000000000000000000000018003C00DE
:104E80003C001800000000000000000000000000CE
:104E900000000000004000600020003000100018FA
:104EA0000008000C0004000600020003000180015D
:104EB0008000C0004000600020003000100018009A
:104EC00008000C00040006000200000000000000C2
:104ED00000000000000000000000C007600C301857
:104EE0001830183018200C600C600C600C600C60DE
:104EF0000C600C600C600C601820183018303018F2
:104F0000600CC0070000000000000000000000006E
:104F10000000000000000000000000018001F80116
:104F20008001800180018001800180018001800179
:104F30008001800180018001800180018001800169
:104F4000C003F81F00000000000000000000000087
:104F500000000000000000000000E007101C08181E
:104F6000043004300C300C3000300018000800040D
:104F700000020001800040002020102008200430A2
:104F8000FC1FFC1F000000000000000000000000EB
:104F900000000000000000000000E003180E0C0CF0
:104FA0000C180C180C180018000C0006C003000E9A
:104FB00000180010003000300C300C300C100C18B1
:104FC000180CE003000000000000000000000000DA
:104FD00000000000000000000000000C000E000EA9
:104FE000000F800E800E400E600E200E100E100E70
:104FF000080E040E040EFE7F000E000E000E000EC2
:10500000000E000EC07F0000000000000000000045
:1050100000000000000000000000F03FF03F100022
:105020001000100008000800C807280C1818081005
:1050300000300030003000300C300C300418041800
:10504000080CF00300000000000000000000000059
:1050500000000000000000000000800FC0102030A1
:1050600010301800180008000C008C0F6C183C3031
:105070001C600C600C600C600C60186018203030F4
:105080006018C007000000000000000000000000E1
:1050900000000000000000000000F83FF83F1C1076
:1050A0000C080408040400040002000200010001CE
:1050B0000001800080008000C000C000C000C0006F
:1050C000C000C00000000000000000000000000060
:1050D00000000000000000000000E007300C18187D
:1050E0000C300C300C301C3038187008E007B0075A
:1050F000180E0C1C063806300630063006300C1828
:10510000180CE00300000000000000000000000098
:1051100000000000000000000000E00318040C087C
:105120000C180610063006300630063006380C3CE7
:105130001836F03100300018001800180C0C0C065E
:105140000C03F0010000000000000000000000005F
:10515000000000000000000000000000000000004F
:1051600000000000000000008001C003C0038001B7
:105170000000000000000000000000008001C003EB
:10518000C0038001000000000000000000000000DB
:10519000000000000000000000000000000000000F
:1051A0000000000000000000C000C000000000007F
:1051B00000000000000000000000000000000000EF
:1051C000C000C000800080004000400000000000DF
:1051D0000000000000000000002000100008000493
:1051E000000600038001C0006000300018000C00C1
:1051F000180030006000C0008001000300060004B9
:105200000008001000200000000000000000000066
:10521000000000000000000000000000000000008E
:105220000000000000000000FE7F00000000000001
:1052300000000000FE7F00000000000000000000F1
:10524000000000000000000000000000000000005E
:105250000000000000000000040008001000200012
:105260006000C000800100030006000C0018003040
:105270000018000C000600038001C0006000200040
:105280001000080004000000000000000000000002
:105290000000000000000000C0073018083008605F
:1052A0000C601C601C601C600030001C00060001CB
:1052B0008000800080008000000000008001C003AA
:1052C000C00380010000000000000000000000009A
:1052D00000000000000000000000C007601810304F
:1052E00018200C2F8C4D864CC64CC64C664C664420
:1052F0006644662666266615CC1C0C4008201830CD
:105300003018C0070000000000000000000000008E
:1053100000000000000000000001C001C001C00149
:10532000400160032003200320033006100610060E
:105330001006F80F080C080C080C0C0C04180418C4
:1053400006181F7C000000000000000000000000A4
:1053500000000000000000000000FE07181C1838C4
:1053600018301830183018301818180CF80718189A
:10537000183018201860186018601860186018300D
:105380001818FE0F000000000000000000000000E0
:1053900000000000000000000000C027603810304E
:1053A00018200C400C400400060006000600060011
:1053B00006000600060006000C400C400C201830C9
:1053C0003018C007000000000000000000000000CE
:1053D00000000000000000000000FE03180E181876
:1053E000183018301830186018601860186018608D
:1053F00018601860186018601830183018101818E5
:10540000180EFE0300000000000000000000000075
:1054100000000000000000000000FE3F18301820CF
:1054200018601840180018081808180CF80F180C05
:1054300018081808180018001800184018401820FC
:105440001830FE3F000000000000000000000000D7
:1054500000000000000000000000FE7F18701840EF
:1054600018C018801800181018101818F81F1818ED
:10547000181018101800180018001800180018004C
:1054800018007E0000000000000000000000000086
:1054900000000000000000000000C013701C10108D
:1054A00018100C200C200400060006000600060060
:1054B000060006FC063006300C300C301830183070
:1054C0003008C007000000000000000000000000DD
:1054D000000000000000000000003F7E0C180C18C7
:1054E0000C180C180C180C180C180C180C18FC1FA5
:1054F0000C180C180C180C180C180C180C180C188C
:105500000C183F7E000000000000000000000000BA
:1055100000000000000000000000F81F8001800172
:105520008001800180018001800180018001800173
:105530008001800180018001800180018001800163
:105540008001F81F000000000000000000000000C3
:1055500000000000000000000000E07F00060006E0
:10556000000600060006000600060006000600060B
:1055700000060006000600060006000600060006FB
:105580000006000600060E060E038E01FC00000059
:10559000000000000000000000007E7C18181808C1
:1055A000180418061802180198019801D801B803C8
:1055B000380318071806180E180C181C181818307D
:1055C00018307EFC00000000000000000000000019
:1055D000000000000000000000007E00180018001D
:1055E00018001800180018001800180018001800FB
:1055F000180018001800180018001840184018204B
:105600001830FE3F00000000000000000000000015
:10561000000000000000000000001FF81C381C38CB
:105620001C381C3C343434343434343674326432F0
:10563000643264326431C431C431C431C430C430E2
:1056400084309FFC0000000000000000000000000B
:10565000000000000000000000001F7C1C103C1037
:105660003410341074106410E410C410C411841188
:105670008413041304170416041E041C041C041CC5
:1056800004181F18000000000000000000000000C7
:1056900000000000000000000000C003300C1818DB
:1056A00008100C300C30066006600660066006606C
:1056B00006600660066006600C200C3008101818A2
:1056C000300CC003000000000000000000000000DB
:1056D00000000000000000000000FE0F1818183045
:1056E0001860186018601860186018301818F80FE3
:1056F00018001800180018001800180018001800EA
:1057000018007E0000000000000000000000000003
:1057100000000000000000000000C003300C18185A
:105720000C100C300C2006600660066006600660F7
:105730000660066006600660E4612C331C321816B1
:10574000300EC007004C007C003800000000000054
:1057500000000000000000000000FE07181C1838C0
:1057600018301830183018301818180CF80798032B
:105770001803180718061806180E180C180C181C11
:1057800018187E78000000000000000000000000F3
:1057900000000000000000000000E0273038183052
:1057A0000C200C200C000C0018007800E003800F87
:1057B000001E00380070006004600460086018304B
:1057C0003818C80F000000000000000000000000B2
:1057D00000000000000000000000FC3F8C218461FC
:1057E000824182418001800180018001800180012D
:1057F00080018001800180018001800180018001A1
:105800008001E00700000000000000000000000030
:10581000000000000000000000003F7C0C100C1095
:105820000C100C100C100C100C100C100C100C1098
:105830000C100C100C100C100C100C100C10080894
:105840003804E00300000000000000000000000039
:10585000000000000000000000003EF818201820A2
:1058600018203010301030103010600860086008C8
:10587000E00CC004C004C0048003800380038003E4
:105880000001000100000000000000000000000016
:1058900000000000000000000000DFF386618621A8
:1058A00086218C210C218C238C138C138C134C138C
:1058B00058125816580E380E380E380E300C100488
:1058C00010041004000000000000000000000000B0
:1058D000000000000000000000007E3E18083808AC
:1058E0003004300470026002E001C001C001800198
:1058F00080034003400720062006100C100C0818F7
:1059000008183E7C000000000000000000000000BD
:10591000000000000000000000007E7C1C10181039
:1059200018083008300C700460046002C002C00225
:10593000C00180018001800180018001800180011F
:105940008001E007000000000000000000000000EF
:1059500000000000000000000000F83F18180818C0
:10596000040C040E00060007000380038001C00140
:10597000C000E000600070003000382018201C10CB
:105980000C18FE1F000000000000000000000000D6
:1059900000000000C03F40004000400040004000C8
:1059A00040004000400040004000400040004000F7
:1059B00040004000400040004000400040004000E7
:1059C0004000400040004000C03F000000000000D8
:1059D000000000000000000008001800180010007F
:1059E00030002000600060004000C00080008001A6
:1059F0008001000100030002000600060004000C04
:105A000000080018001800100030002000000000FE
:105A100000000000FC03000200020002000200027D
:105A20000002000200020002000200020002000266
:105A30000002000200020002000200020002000256
:105A40000002000200020002FC030000000000004F
:105A5000000000008007C0062008101000000000B1
:105A60000000000000000000000000000000000036
:105A70000000000000000000000000000000000026
:105A80000000000000000000000000000000000016
:105A90000000000000000000000000000000000006
:105AA00000000000000000000000000000000000F6
:105AB00000000000000000000000000000000000E6
:105AC000000000000000000000000000FFFF0000D8
:105AD000000000007800C00000010000000000008D
